AE00TO202205050105/05/202200000017700000000000000185252KGM  00000193905KGM  18000004530              AV 8 B                   AV 8 B                   0         0         0         0    0    0    00000000000177000000000251200044462400
AE00TO202205050105/05/202200000000100000000000000001047KGM  00000001096KGM  18000004535              AV 8 B/R                 AV 8 B/R                 0         0         0         0    0    0    00000000000001000000000251200000251200
AE00TO202205050105/05/202200000009000000000000000094195KGM  00000098596KGM  18000004540              AV 8 W                   AV 8 W                   0         0         0         0    0    0    00000000000090000000000251200022608000
AE00TO202205050105/05/202200000000200000000000000001984KGM  00000002082KGM  18007703730              AVSS 03F B               AVSS 03F B               0         0         0         0    0    0    00000000000040000000000013600000544000
AE00TO202205050105/05/202200000000100000000000000000992KGM  00000001041KGM  18007703760              AVSS 03F G               AVSS 03F G               0         0         0         0    0    0    00000000000020000000000013600000272000
AE00TO202205050105/05/202200000000300000000000000002976KGM  00000003123KGM  18007703780              AVSS 03F BR              AVSS 03F BR              0         0         0         0    0    0    00000000000060000000000013600000816000
AE00TO202205050105/05/202200000000100000000000000000992KGM  00000001041KGM  18007703790              AVSS 03F L               AVSS 03F L               0         0         0         0    0    0    00000000000020000000000013600000272000
AE00TO202205050105/05/202200000000400000000000000004445KGM  00000004640KGM  18007704140              AVSS 125F W              AVSS 125F W              0         0         0         0    0    0    00000000000032000000000041200001318400
AE00TO202205050105/05/202200000000200000000000000002222KGM  00000002320KGM  18007704143              AVSS 125F W/B            AVSS 125F W/B            0         0         0         0    0    0    00000000000016000000000041200000659200
AE00TO202205050105/05/202200000000200000000000000002222KGM  00000002320KGM  18007704180              AVSS 125F BR             AVSS 125F BR             0         0         0         0    0    0    00000000000016000000000041200000659200
AE00TO202205050105/05/202200000009000000000000000095688KGM  00000100088KGM  18007704230              AVSS 2F B                AVSS 2F B                0         0         0         0    0    0    00000000000450000000000060300027135000
AE00TO202205050105/05/202200000000700000000000000007442KGM  00000007785KGM  18007704240              AVSS 2F W                AVSS 2F W                0         0         0         0    0    0    00000000000035000000000060300002110500
AE00TO202205050105/05/202200000000800000000000000008506KGM  00000008897KGM  18007704243              AVSS 2F W/B              AVSS 2F W/B              0         0         0         0    0    0    00000000000040000000000060300002412000
AE00TO202205050105/05/202200000000100000000000000001063KGM  00000001112KGM  18007704253              AVSS 2F R/B              AVSS 2F R/B              0         0         0         0    0    0    00000000000005000000000060300000301500
AE00TO202205050105/05/202200000000100000000000000001063KGM  00000001112KGM  18007704291              AVSS 2F SB               AVSS 2F SB               0         0         0         0    0    0    00000000000005000000000060300000301500
AE00TO202205050105/05/202200000000700000000000000010729KGM  00000011071KGM  18009604330              AVS 3 B                  AVS 3 B                  0         0         0         0    0    0    00000000000028000000000104000002912000
AE00TO202205050105/05/202200000000200000000000000003066KGM  00000003164KGM  18009604340              AVS 3 W                  AVS 3 W                  0         0         0         0    0    0    00000000000008000000000104000000832000
AE00TO202205050105/05/202200000000600000000000000009196KGM  00000009489KGM  18009604343              AVS 3 W/B                AVS 3 W/B                0         0         0         0    0    0    00000000000024000000000104000002496000
AE00TO202205050105/05/202200000000100000000000000001533KGM  00000001582KGM  18009604349              AVS 3 W/L                AVS 3 W/L                0         0         0         0    0    0    00000000000004000000000104000000416000
AE00TO202205050105/05/202200000000300000000000000004598KGM  00000004744KGM  18009604350              AVS 3 R                  AVS 3 R                  0         0         0         0    0    0    00000000000012000000000104000001248000
AE00TO202205050105/05/202200000000100000000000000001533KGM  00000001581KGM  18009604353              AVS 3 R/B                AVS 3 R/B                0         0         0         0    0    0    00000000000004000000000104000000416000
AE00TO202205050105/05/202200000000200000000000000003065KGM  00000003163KGM  18009604390              AVS 3 L                  AVS 3 L                  0         0         0         0    0    0    00000000000008000000000104000000832000
AE00TO202205050105/05/202200000000100000000000000001533KGM  00000001581KGM  18009604394              AVS 3 L/W                AVS 3 L/W                0         0         0         0    0    0    00000000000004000000000104000000416000
AE00TO202205050105/05/202200000006600000000000000078949KGM  00000082176KGM  18009604440              AVS 5 W                  AVS 5 W                  0         0         0         0    0    0    00000000000132000000000163800021621600
AE00TO202205050105/05/202200000000100000000000000000942KGM  00000000991KGM  18018403707              CAVS 03 P/B              CAVS 03 P/B              0         0         0         0    0    0    00000000000020000000000012100000242000
AE00TO202205050105/05/202200000000200000000000000001884KGM  00000001982KGM  18018403733              CAVS 03 V/W              CAVS 03 V/W              0         0         0         0    0    0    00000000000040000000000012100000484000
AE00TO202205050105/05/202200000006000000000000000056520KGM  00000059453KGM  18018403750              CAVS 03 R                CAVS 03 R                0         0         0         0    0    0    00000000001200000000000012100014520000
AE00TO202205050105/05/202200000000100000000000000000942KGM  00000000991KGM  18018403760              CAVS 03 G                CAVS 03 G                0         0         0         0    0    0    00000000000020000000000012100000242000
AE00TO202205050105/05/202200000000100000000000000000942KGM  00000000991KGM  18018403790              CAVS 03 L                CAVS 03 L                0         0         0         0    0    0    00000000000020000000000012100000242000
AE00TO202205050105/05/202200000000100000000000000000942KGM  00000000991KGM  18018403791              CAVS 03 SB               CAVS 03 SB               0         0         0         0    0    0    00000000000020000000000012100000242000
AE00TO202205050105/05/202200000003700000000000000034854KGM  00000036663KGM  18018403792              CAVS 03 V                CAVS 03 V                0         0         0         0    0    0    00000000000740000000000012100008954000
AE00TO202205050105/05/202200000000100000000000000001016KGM  00000001064KGM  18018403930              CAVS 05 B                CAVS 05 B                0         0         0         0    0    0    00000000000015000000000017600000264000
AE00TO202205050105/05/202200000000100000000000000001016KGM  00000001064KGM  18018403960              CAVS 05 G                CAVS 05 G                0         0         0         0    0    0    00000000000015000000000017600000264000
AE00TO202205050105/05/202200000003700000000000000037574KGM  00000039382KGM  18018403991              CAVS 05 SB               CAVS 05 SB               0         0         0         0    0    0    00000000000555000000000017600009768000
AE00TO202205050105/05/202200000007400000000000000071410KGM  00000075028KGM  18018404040              CAVS 085 W               CAVS 085 W               0         0         0         0    0    0    00000000000740000000000027000019980000
AE00TO202205050105/05/202200000000200000000000000001930KGM  00000002028KGM  18018404045              CAVS 085 W/R             CAVS 085 W/R             0         0         0         0    0    0    00000000000020000000000027000000540000
AE00TO202205050105/05/202200000000300000000000000002895KGM  00000003042KGM  18018404056              CAVS 085 R/G             CAVS 085 R/G             0         0         0         0    0    0    00000000000030000000000027000000810000
AE00TO202205050105/05/202200000001000000000000000009650KGM  00000010139KGM  18018404061              CAVS 085 LG              CAVS 085 LG              0         0         0         0    0    0    00000000000100000000000027000002700000
AE00TO202205050105/05/202200000000100000000000000001155KGM  00000001204KGM  1801R703930              CIVUS 05 B               CIVUS 05 B               0         0         0         0    0    0    00000000000022000000000015800000347600
AE00TO202205050105/05/202200000000100000000000000001155KGM  00000001204KGM  1801R703940              CIVUS 05 W               CIVUS 05 W               0         0         0         0    0    0    00000000000022000000000015800000347600
AE00TO202205050105/05/202200000000300000000000000003465KGM  00000003612KGM  1801R703943              CIVUS 05 W/B             CIVUS 05 W/B             0         0         0         0    0    0    00000000000066000000000015800001042800
AE00TO202205050105/05/202200000000200000000000000002310KGM  00000002408KGM  1801R70395U              CIVUS 05 BE              CIVUS 05 BE              0         0         0         0    0    0    00000000000044000000000015800000695200
AE00TO202205050105/05/202200000000100000000000000001155KGM  00000001204KGM  1801R703960              CIVUS 05 G               CIVUS 05 G               0         0         0         0    0    0    00000000000022000000000015800000347600
AE00TO202205050105/05/202200000015800000000000000182490KGM  00000190214KGM  1801R703970              CIVUS 05 Y               CIVUS 05 Y               0         0         0         0    0    0    00000000003476000000000015800054920800
AE00TO202205050105/05/202200000000200000000000000002310KGM  00000002408KGM  1801R703973              CIVUS 05 Y/B             CIVUS 05 Y/B             0         0         0         0    0    0    00000000000044000000000015800000695200
AE00TO202205050105/05/202200000000200000000000000002310KGM  00000002408KGM  1801R703980              CIVUS 05 BR              CIVUS 05 BR              0         0         0         0    0    0    00000000000044000000000015800000695200
AE00TO202205050105/05/202200000000200000000000000002310KGM  00000002408KGM  1801R703990              CIVUS 05 L               CIVUS 05 L               0         0         0         0    0    0    00000000000044000000000015800000695200
AE00TO202205050105/05/202200000002200000000000000025410KGM  00000026486KGM  1801R703991              CIVUS 05 SB              CIVUS 05 SB              0         0         0         0    0    0    00000000000484000000000015800007647200
AE00TO202205050105/05/202200000005900000000000000067703KGM  00000070587KGM  1801R704040              CIVUS 075 W              CIVUS 075 W              0         0         0         0    0    0    00000000000885000000000023600020886000
AE00TO202205050105/05/202200000000900000000000000010328KGM  00000010768KGM  1801R704043              CIVUS 075 W/B            CIVUS 075 W/B            0         0         0         0    0    0    00000000000135000000000023600003186000
AE00TO202205050105/05/202200000002200000000000000025246KGM  00000026320KGM  1801R704050              CIVUS 075 R              CIVUS 075 R              0         0         0         0    0    0    00000000000330000000000023600007788000
AE00TO202205050105/05/202200000000400000000000000004590KGM  00000004786KGM  1801R70405U              CIVUS 075 BE             CIVUS 075 BE             0         0         0         0    0    0    00000000000060000000000023600001416000
AE00TO202205050105/05/202200000000700000000000000008033KGM  00000008375KGM  1801R704061              CIVUS 075 LG             CIVUS 075 LG             0         0         0         0    0    0    00000000000105000000000023600002478000
AE00TO202205050105/05/202200000000800000000000000009180KGM  00000009571KGM  1801R704070              CIVUS 075 Y              CIVUS 075 Y              0         0         0         0    0    0    00000000000120000000000023600002832000
AE00TO202205050105/05/202200000001800000000000000020655KGM  00000021535KGM  1801R704080              CIVUS 075 BR             CIVUS 075 BR             0         0         0         0    0    0    00000000000270000000000023600006372000
AE00TO202205050105/05/202200000001600000000000000018360KGM  00000019142KGM  1801R704091              CIVUS 075 SB             CIVUS 075 SB             0         0         0         0    0    0    00000000000240000000000023600005664000
AE00TO202205050105/05/202200000003800000000000000043605KGM  00000045463KGM  1801R704092              CIVUS 075 V              CIVUS 075 V              0         0         0         0    0    0    00000000000570000000000023600013452000
AE00TO202205050105/05/202200000000200000000000000002456KGM  00000002554KGM  1801R704150              CIVUS 125 R              CIVUS 125 R              0         0         0         0    0    0    00000000000020000000000037700000754000
AE00TO202205050105/05/202200000000200000000000000002456KGM  00000002554KGM  1801R704152              CIVUS 125 P              CIVUS 125 P              0         0         0         0    0    0    00000000000020000000000037700000754000
AE00TO202205050105/05/202200000000100000000000000001228KGM  00000001277KGM  1801R704160              CIVUS 125 G              CIVUS 125 G              0         0         0         0    0    0    00000000000010000000000037700000377000
AE00TO202205050105/05/202200000000100000000000000001228KGM  00000001277KGM  1801R704161              CIVUS 125 LG             CIVUS 125 LG             0         0         0         0    0    0    00000000000010000000000037700000377000
AE00TO202205050105/05/202200000000100000000000000001228KGM  00000001277KGM  1801R704190              CIVUS 125 L              CIVUS 125 L              0         0         0         0    0    0    00000000000010000000000037700000377000
AE00TO202205050105/05/202200000003400000000000000039372KGM  00000041034KGM  1801R706930              CIVUS 035 B              CIVUS 035 B              0         0         0         0    0    0    00000000001020000000000011300011526000
AE00TO202205050105/05/202200000000400000000000000004632KGM  00000004828KGM  1801R706940              CIVUS 035 W              CIVUS 035 W              0         0         0         0    0    0    00000000000120000000000011300001356000
AE00TO202205050105/05/202200000000500000000000000005790KGM  00000006034KGM  1801R706941              CIVUS 035 GY             CIVUS 035 GY             0         0         0         0    0    0    00000000000150000000000011300001695000
AE00TO202205050105/05/202200000002200000000000000025476KGM  00000026551KGM  1801R706950              CIVUS 035 R              CIVUS 035 R              0         0         0         0    0    0    00000000000660000000000011300007458000
AE00TO202205050105/05/202200000000100000000000000001158KGM  00000001207KGM  1801R706970              CIVUS 035 Y              CIVUS 035 Y              0         0         0         0    0    0    00000000000030000000000011300000339000
AE00TO202205050105/05/202200000007300000000000000084534KGM  00000088103KGM  1801R706973              CIVUS 035 Y/B            CIVUS 035 Y/B            0         0         0         0    0    0    00000000002190000000000011300024747000
AE00TO202205050105/05/202200000002300000000000000025875KGM  00000027000KGM  1801W003930              IVSSH 05F B              IVSSH 05F B              0         0         0         0    0    0    00000000000414000000000018300007576200
AE00TO202205050105/05/202200000000100000000000000001125KGM  00000001174KGM  1801W003950              IVSSH 05F R              IVSSH 05F R              0         0         0         0    0    0    00000000000018000000000018300000329400
AE00TO202205050105/05/202200000001100000000000000012375KGM  00000012913KGM  1801W003960              IVSSH 05F G              IVSSH 05F G              0         0         0         0    0    0    00000000000198000000000018300003623400
AE00TO202205050105/05/202200000001100000000000000012375KGM  00000012913KGM  1801W003990              IVSSH 05F L              IVSSH 05F L              0         0         0         0    0    0    00000000000198000000000018300003623400
AE00TO202205050105/05/202200000002800000000000000031500KGM  00000032868KGM  1801W003992              IVSSH 05F V              IVSSH 05F V              0         0         0         0    0    0    00000000000504000000000018300009223200
AE00TO202205050105/05/202200000000600000000000000006780KGM  00000007073KGM  1801W006930              IVSSH 035F B             IVSSH 035F B             0         0         0         0    0    0    00000000000150000000000013300001995000
AE00TO202205050105/05/202200000000200000000000000002260KGM  00000002358KGM  1801W006943              IVSSH 035F W/B           IVSSH 035F W/B           0         0         0         0    0    0    00000000000050000000000013300000665000
AE00TO202205050105/05/202200000004100000000000000046330KGM  00000048335KGM  1801W006950              IVSSH 035F R             IVSSH 035F R             0         0         0         0    0    0    00000000001025000000000013300013632500
AE00TO202205050105/05/202200000000200000000000000002260KGM  00000002358KGM  1801W006960              IVSSH 035F G             IVSSH 035F G             0         0         0         0    0    0    00000000000050000000000013300000665000
AE00TO202205050105/05/202200000000600000000000000006780KGM  00000007073KGM  1801W006961              IVSSH 035F LG            IVSSH 035F LG            0         0         0         0    0    0    00000000000150000000000013300001995000
AE00TO202205050105/05/202200000001700000000000000019210KGM  00000020041KGM  1801W006970              IVSSH 035F Y             IVSSH 035F Y             0         0         0         0    0    0    00000000000425000000000013300005652500
AE00TO202205050105/05/202200000002200000000000000024860KGM  00000025936KGM  1801W006991              IVSSH 035F SB            IVSSH 035F SB            0         0         0         0    0    0    00000000000550000000000013300007315000
AE00TO202205050105/05/202200000003700000000000000031079KGM  00000032888KGM  181AD2004ZZ              CIVUSAS-S 035X4 B        CIVUSAS-S 035X4 B        0         0         0         0    0    0    00000000000111000000000075300008358300
AE00TO202205050105/05/202200000000200000000000000001493KGM  00000001591KGM  181B0911610              CAVSAS 03X2 GY/R         CAVSAS 03X2 GY/R         0         0         0         0    0    0    00000000000007000000000052300000366100
AE00TO202205050105/05/202200000000900000000000000007690KGM  00000008131KGM  181B32102S1              AVSSCS 05FX2 DGY         AVSSCS 05FX2 DGY         0         0         0         0    0    0    00000000000027000000000082400002224800
AE00TO202205050105/05/202200000000600000000000000005040KGM  00000005334KGM  181B32102Y6              AVSSCS 05FX2 DGY/G       AVSSCS 05FX2 DGY/G       0         0         0         0    0    0    00000000000018000000000082400001483200
AE00TO202205050105/05/202200000000100000000000000000834KGM  00000000883KGM  181B32102Y7              AVSSCS 05FX2 DGY/Y       AVSSCS 05FX2 DGY/Y       0         0         0         0    0    0    00000000000003000000000082400000247200
AE00TO202205050105/05/202200000000600000000000000004293KGM  00000004587KGM  181D6910230              AVSSHCS 05FX2 B          AVSSHCS 05FX2 B          0         0         0         0    0    0    00000000000018000000000086500001557000
AE00TO202205050105/05/202200000001100000000000000007871KGM  00000008409KGM  181D6910235              AVSSHCS 05FX2 B/R        AVSSHCS 05FX2 B/R        0         0         0         0    0    0    00000000000033000000000086500002854500
AE00TO202205050105/05/202200000000300000000000000002147KGM  00000002293KGM  181D6910237              AVSSHCS 05FX2 B/Y        AVSSHCS 05FX2 B/Y        0         0         0         0    0    0    00000000000009000000000086500000778500
AE00TO202205050105/05/202200000001300000000000000009302KGM  00000009938KGM  181D6910239              AVSSHCS 05FX2 B/L        AVSSHCS 05FX2 B/L        0         0         0         0    0    0    00000000000039000000000086500003373500
AE00TO202205050105/05/202200000000200000000000000001431KGM  00000001529KGM  181D69102A8              AVSSHCS 05FX2 B/P        AVSSHCS 05FX2 B/P        0         0         0         0    0    0    00000000000006000000000086500000519000
AE00TO202205050105/05/202200000000100000000000000000622KGM  00000000670KGM  181E50001ZZ              AVSSCS-S 05FX2 DGY       AVSSCS-S 05FX2 DGY       0         0         0         0    0    0    00000000000003000000000076700000230100
AE00TO202205050105/05/202200000000400000000000000003056KGM  00000003251KGM  181E50004ZZ              AVSSCS-S 05FX1 DGY       AVSSCS-S 05FX1 DGY       0         0         0         0    0    0    00000000000016000000000054700000875200
AE00TO202205050105/05/202200000000100000000000000000758KGM  00000000807KGM  181E50020ZZ              AVSSCS-S 03FX2 DGY/R     AVSSCS-S 03FX2 DGY/R     0         0         0         0    0    0    00000000000003500000000063900000223650
AE00TO202205050105/05/202200000000600000000000000004547KGM  00000004840KGM  181E50021ZZ              AVSSCS-S 03FX2 DGY/P     AVSSCS-S 03FX2 DGY/P     0         0         0         0    0    0    00000000000021000000000063900001341900
AE00TO202205050105/05/202200000001900000000000000015509KGM  00000016438KGM  181E50027ZZ              AVSSCS-S 05FX3 DGY/G     AVSSCS-S 05FX3 DGY/G     0         0         0         0    0    0    00000000000047500000000099200004712000
AE00TO202205050105/05/202200000001000000000000000007579KGM  00000008067KGM  181E50036ZZ              AVSSCS-S 03FX2 DGY       AVSSCS-S 03FX2 DGY       0         0         0         0    0    0    00000000000035000000000063900002236500
AE00TO202205050105/05/202200000007100000000000000053918KGM  00000057390KGM  181F21009ZZ              AVSSHCS-S 05FX2 B        AVSSHCS-S 05FX2 B        0         0         0         0    0    0    00000000000213000000000079900017018700
AE00TO202205050105/05/202200000000100000000000000000759KGM  00000000808KGM  181F21013ZZ              AVSSHCS-S 05FX2 B/Y      AVSSHCS-S 05FX2 B/Y      0         0         0         0    0    0    00000000000003000000000079900000239700
AE00TO202205050105/05/202200000000700000000000000005316KGM  00000005658KGM  181F21014ZZ              AVSSHCS-S 05FX2 B/L      AVSSHCS-S 05FX2 B/L      0         0         0         0    0    0    00000000000021000000000079900001677900
AE00TO202205050105/05/202200000000900000000000000006835KGM  00000007276KGM  181F21016ZZ              AVSSHCS-S 05FX2 B/BR     AVSSHCS-S 05FX2 B/BR     0         0         0         0    0    0    00000000000027000000000079900002157300
